:020000000F28C7
:10000800DE00030E8312A0000408A1000A08A20063
:100018005F08A30067288316FF2390008312142823
:10002800830116288312AE01AE0A0230A800280800
:10003800AB002B082E07A8002808AD000630A80042
:100048002808A4002D0855208312A9002908AA0011
:100058002E08A8002808A4000D3055208312A900F6
:100068002908AE002E082B02031844282D08A800E2
:100078002808A400213055208312A9002908AD00C2
:10008800AC012D082C02031854282C08A8002808B5
:10009800AE000310AE0D0130A8002808AC074528B3
:1000A8000F288312A700A601271C5E282408A50094
:1000B8002508A6070310A40D0310A70CA708031D05
:1000C8005828260808002308DF0022088A0021088B
:0C00D8008400200E8300DE0E5E0E090086
:00000001FF
